:100000000C9434000C9449000C9449000C94490061
:100010000C9449000C9449000C9449000C9449003C
:100020000C9449000C9449000C9449000C9449002C
:100030000C9449000C9449000C9449000C9449001C
:100040000C9449000C9449000C9495000C944900C0
:100050000C9449000C9449000C9449000C944900FC
:100060000C9449000C94490011241FBECFEFD8E036
:10007000DEBFCDBF11E0A0E0B1E0ECE8F1E002C0EE
:1000800005900D92AC30B107D9F70E947A000C941C
:10009000C4000C9400008AB18E7F8AB98AB1826054
:1000A0008AB91092C00088E98093C10086E08093ED
:1000B000C20087E690E09093C5008093C400089545
:1000C0009091C00095FFFCCF8093C60008950F93D8
:1000D0001F93CF938C01C0E003C00E946000CF5FEC
:1000E000F801EC0FF11D80818111F7CFCF911F91A5
:1000F0000F910895F8948AB180628AB98BB18F7D8F
:100100008BB90E944B00789488E40E9460008FE6CF
:100110000E9460008CE60E94600081E60E94600000
:1001200080E091E00E946700FFCF1F920F920FB610
:100130000F9211242F933F934F935F936F937F936D
:100140008F939F93AF93BF93CF93EF93FF93C09100
:10015000C6008C2F0E946000C13621F49BB180E262
:1001600089278BB9FF91EF91CF91BF91AF919F916B
:100170008F917F916F915F914F913F912F910F9050
:0C0180000FBE0F901F901895F894FFCF51
:0C018C0053656363696F6E203230000021
:00000001FF
