:100000000C9434000C943E000C943E000C943E0082
:100010000C943E000C943E000C943E000C943E0068
:100020000C943E000C943E000C943E000C943E0058
:100030000C943E000C943E000C943E000C943E0048
:100040000C943E000C943E000C943E000C943E0038
:100050000C943E000C943E000C943E000C943E0028
:100060000C943E000C943E0011241FBECFEFD8E04C
:10007000DEBFCDBF0E945C000C9464000C940000B5
:100080008AB18E7F8AB98AB182608AB91092C00023
:1000900088E98093C10084E08093C20087E690E005
:1000A0009093C5008093C40008959091C00095FF7F
:1000B000FCCF8093C6000895F8940E944000789485
:0C00C00088E40E945500FFCFF894FFCFA9
:00000001FF
