:100000000C9434000C9449000C9449000C94490061
:100010000C9449000C9449000C9449000C9449003C
:100020000C9449000C9449000C9449000C9449002C
:100030000C9449000C9449000C9449000C9449001C
:100040000C9449000C9449000C9449000C9449000C
:100050000C9449000C9449000C9449000C944900FC
:100060000C9449000C94490011241FBECFEFD8E036
:10007000DEBFCDBF11E0A0E0B1E0E2E9F3E002C0F5
:1000800005900D92A63CB107D9F70E9417010C9478
:10009000C7010C9400001092C50087E68093C4004D
:1000A0001092C00088E18093C10086E08093C20076
:1000B00008959091C00095FFFCCF8093C6000895ED
:1000C000CF93DF93EC0103C00E94590021968881F1
:1000D0008111FACFDF91CF9108958091C0008823DC
:1000E000E4F78091C600089580E480937C0087E85F
:1000F00080937A000895ECE7F0E09081907F908300
:1001000090818F70982B9083EAE7F0E08081806483
:10011000808380917A0086FDFCCF80917800909159
:100120007900089580E091E00E94600085E191E00F
:100130000E9460008DE291E00E9460008FE391E0F8
:100140000E94600008951F93CF93DF9300D000D0EA
:1001500000D0CDB7DEB7AC01892B91F580E30E94CA
:1001600059005BC09A01ADECBCEC0E94B8019695B9
:10017000879596958795969587959C01220F331FB5
:10018000880F991F880F991F880F991F820F931F3F
:100190009A01281B390BC901E1E0F0E0EC0FFD1FCB
:1001A000E10FF11D805D80839A010E94B801AC01CE
:1001B0005695479556954795569547951F5F01C0AB
:1001C00010E04115510571F680E018C0282F30E08D
:1001D000A1E0B0E0AC0FBD1FA20FB31F9C91E12FB7
:1001E000F0E03197E21BF30B21E030E02C0F3D1FD4
:1001F000E20FF31F20812C9390838F5F912F9695B0
:10020000891720F3E1E0F0E0EC0FFD1FE10FF11D95
:100210001082CE0101960E94600026960FB6F894D7
:10022000DEBF0FBECDBFDF91CF911F9108958AB180
:100230008C6F8AB984B1836084B98BB183708BB9B8
:1002400085B18C7F85B90E944B000E9474000E948A
:1002500092000E946D00C82F0E94590083EC91E02B
:100260000E946000C13381F484E00E947B00EC01B5
:1002700087E591E00E946000CE010E94A30081EC1E
:1002800091E00E946000E3CFC233D1F588E691E0AF
:100290000E9460000E946D00182F0E94590083EC9C
:1002A00091E00E946000812F0E949701D82F84E87E
:1002B00091E00E946000C0E015C027E030E02C1BF8
:1002C00031098D2F90E002C0959587952A95E2F728
:1002D00080FF04C081E30E94590003C080E30E94B4
:1002E0005900CF5FC83048F383EC91E00E94600072
:1002F000812F0E9498018CE991E00E946000A7CFB5
:1003000081EB91E00E946000A2CF40E050E00BC082
:100310002F5F3F4F02C020E030E0203466E0360718
:10032000B8F34F5F5F4F48175907A8F30895089532
:10033000CF930E949701C82F8BB183708BB985B181
:100340008C7F85B98FE090E00E9485012BB18C2FC6
:1003500090E0880F991F880F991F822B8BB985B168
:10036000C295C695C695C370C82BC5B9CF910895DF
:10037000A29FB001B39FC001A39F700D811D1124E6
:10038000911DB29F700D811D1124911D0895F89447
:02039000FFCF9D
:100392003D3D3D3D3D3D204D454E55203D3D3D3D84
:1003A2003D3D0D0A00312E204C65657220506F7460
:1003B200656E63696F6D6574726F0D0A00322E206F
:1003C200456E766961722041736369690D0A005353
:1003D200656C656363696F6E6520756E61206F7011
:1003E20063696F6E3A2000506F74656E63696F6D5A
:1003F2006574726F203D2000496E677265736520D7
:10040200756E206361726163746572204153434962
:10041200493A2000436F6469676F20415343494959
:100422002062696E6172696F203D20004D6F7374A6
:100432007261646F20656E206C6564730D0A0D0A2B
:10044200004F7063696F6E206E6F2076616C696415
:06045200610D0A0D0A0015
:00000001FF
