:100000000C9434000C943E000C943E000C943E0082
:100010000C943E000C943E000C943E000C943E0068
:100020000C943E000C943E000C943E000C943E0058
:100030000C943E000C943E000C943E000C943E0048
:100040000C943E000C943E000C943E000C943E0038
:100050000C943E000C943E000C943E000C943E0028
:100060000C943E000C943E0011241FBECFEFD8E04C
:10007000DEBFCDBF0E9440000C945F000C940000D6
:10008000E1E6F0E080E8808384E080830E944D0018
:1000900085E08A95F1F70000FBCF8AB180668AB9C6
:1000A00014BC15BC84B5806884BD84B5806384BDF0
:1000B00084B5836084BD85B5826085BD0895F8945C
:0200C000FFCF70
:00000001FF
