:100000000C9434000C9451000C9451000C94510049
:100010000C9451000C9451000C9451000C9451001C
:100020000C9451000C9451000C9451000C94F90460
:100030000C9451000C9451000C94D1020C9451007A
:100040000C9451000C9451000C9451000C945100EC
:100050000C9451000C9451000C9451000C945100DC
:100060000C9451000C94510011241FBECFEFD8E026
:10007000DEBFCDBF12E0A0E0B1E0E6E1FCE002C0EF
:1000800005900D92A835B107D9F722E0A8E5B2E0B6
:1000900001C01D92A539B207E1F70E949E020C949F
:1000A00009060C94000080E480937C0087E880932C
:1000B0007A0010927B0008958770ECE7F0E0908161
:1000C000907F892B8083EAE7F0E0808180648083E1
:1000D00080917A0086FDFCCF809178009091790024
:1000E00008958FB3877F8FBB0895F999FECF92BD96
:1000F00081BD8FB381608FBB80B50895F999FECF24
:1001000092BD81BD60BD8FB38F7C8FBB9FB7F894CC
:100110008FB384608FBB8FB382608FBB9FBF089506
:100120001F93CF93DF93EC01162F0E947500811768
:1001300021F0612FCE010E947E00DF91CF911F91AF
:1001400008958AB182608AB98AB18E7F8AB98AB1EC
:1001500084608AB98BB18B7F8BB984B1877E84B977
:1001600085B1886185B9089514BC15BC16BC84B5E9
:10017000826084BD89EF87BDEEE6F0E08081826019
:10018000808385B5836085BD08950E94A1000E948B
:1001900053000E9471000E941D050E94B4000E943D
:1001A000CB0360E08EE892E00E94010461E089E701
:1001B00092E00E94010462E080E892E00E94010463
:1001C00063E087E892E00E94010408950E945F05C1
:1001D00083E091E00E9438050E945F058EE091E087
:1001E0000E9438050E945F0580E391E00E94380577
:1001F0000E945F058BE491E00E9438050E945F0534
:100200000E945F05089565EA80E090E00E949000FA
:1002100087E892E00E94CD04682F81E090E00E9480
:10022000900080E892E00E94CD04682F82E090E088
:100230000E94900089E792E00E94CD04682F83E03D
:1002400090E00E9490008EE892E00E94CD04682F1A
:1002500084E090E00E9490008BB184608BB9089597
:1002600080E090E00E947500853A59F510920201F5
:1002700081E090E00E947500682F87E892E00E947C
:10028000C00482E090E00E947500682F80E892E050
:100290000E94C00483E090E00E947500682F89E707
:1002A00092E00E94C00484E090E00E947500682FF4
:1002B0008EE892E00E94C0048BB18B7F8BB981E005
:1002C000089580E0089581E0809302018BB18460FD
:1002D0008BB90895813349F40E9463018BE691E064
:1002E0000E9438050E945F050895823349F40E94F8
:1002F00003018EE791E00E9438050E945F05089592
:10030000833391F40E943001882339F08AE991E027
:100310000E9438050E945F05089586EB91E00E94D7
:1003200038050E945F0508958FEC91E00E94380522
:100330000E945F050E94E6000895CF93DF931F920D
:10034000CDB7DEB71982CE0101960E944D058823F4
:1003500089F089818D3071F08A3061F081EE91E011
:100360000E94380589810E9431050E945F058981BC
:100370000E946A010F90DF91CF91089580E00E9462
:100380005C0090935F0280935E0281E00E945C00BB
:1003900090935D0280935C0282E00E945C009093E7
:1003A0005B0280935A0283E00E945C0090935902A2
:1003B00080935802089560915E0270915F0287E811
:1003C00092E00E94A00460915C0270915D0280E85E
:1003D00092E00E94A00460915A0270915B0289E74A
:1003E00092E00E94A00460915802709159028EE838
:1003F00092E00E94A004089581EF91E00E943805E8
:1004000080915E0290915F020E9464058CE20E94DE
:10041000310580915C0290915D020E9464058CE23E
:100420000E94310580915A0290915B020E946405FE
:100430008CE20E94310580915802909159020E94ED
:1004400064050E945F0508952FB7F89460916802D3
:100450007091690280916A0290916B022FBF08959A
:10046000CF92DF92EF92FF921F93CF93DF930E9480
:1004700024026B017C018091640290916502A0913D
:100480006602B0916702A7019601281B390B4A0B3F
:100490005B0B223331054105510508F447C093B188
:1004A00081E0292F287093FF80E0D82F93B181E05D
:1004B000192F107194FF80E0C82F809101018130C5
:1004C00091F4211110C0C0926402D0926502E092B2
:1004D0006602F09267020E94030184EF91E00E949D
:1004E00038050E945F05809100018130D9F4111117
:1004F00019C0C0926402D0926502E0926602F09246
:1005000067020E943001882339F085E192E00E9461
:1005100038050E945F0506C086E392E00E94380518
:100520000E945F05D0930101C0930001DF91CF913C
:100530001F91FF90EF90DF90CF900895F8940E9464
:10054000C50078940E94E6000E94BE0180910201DD
:1005500081110E94DB010E9430020E949D010E94D5
:100560002402009160021091610220916202309198
:1005700063026B017C01C01AD10AE20AF30A40ED62
:10058000C41647E0D406E104F104F0F2609360027F
:100590007093610280936202909363020E94FC0157
:1005A000D3CF1F920F920FB60F9211248F939F9368
:1005B000AF93BF938091680290916902A0916A0203
:1005C000B0916B020196A11DB11D809368029093BA
:1005D0006902A0936A02B0936B02BF91AF919F91A1
:1005E0008F910F900FBE0F901F901895009711F4E8
:1005F00081E090E0A0E0B0E0880F991FAA1FBB1F28
:10060000880F991FAA1FBB1FAC01BD01440F551FC6
:10061000661F771F440F551F661F771F840F951F96
:10062000A61FB71F009721E0A207B10520F08FEFAA
:100630009FEFA0E0B0E0019790938900809388003D
:1006400010928500109284000895AC0160ED77E06F
:1006500090E015C0E92FF0E0EE0FFF1FEF58FD4FBF
:100660000190F081E02D309749F0258136814217C5
:10067000530720F42617370708F4B9019F5F20912C
:100680007002921738F3CB01089580916C0290911B
:100690006D0290936F0280936E0280916E02909132
:1006A0006F02803D974008F448C010926F0210928C
:1006B0006E0220E019C0E22FF0E0EE0FFF1FEF58AE
:1006C000FD4F0190F081E02D309769F0A281B38158
:1006D0003C9181E090E0048002C0880F991F0A9449
:1006E000E2F7832B8C932F5F80917002281718F309
:1006F00029C0E82FF0E0EE0FFF1FEF58FD4F0190EB
:10070000F081E02D3097B9F04581568120916E023D
:1007100030916F022417350770F0A281B3819C914C
:1007200021E030E0048002C0220F331F0A94E2F778
:10073000209529232C938F5F01C080E09091700257
:100740008917B8F280916E0290916F020E94250382
:10075000813D27E0920710F080ED97E090936D02C5
:1007600080936C0280916C0290916D0220916E02D8
:1007700030916F02821B930B59F480916E0290911D
:100780006F02019690936D0280936C0281E090E07D
:100790000E94F6020895CF93DF9380E009C0E82F0E
:1007A000F0E0EE0FFF1FEF58FD4F118210828F5FB8
:1007B0008430A8F31092700210926F0210926E02B1
:1007C00080ED97E090936D0280936C021092800010
:1007D000C1E8D0E0188210928500109284008881D0
:1007E0008860888380ED97E00E94F60288818260AD
:1007F0008883EFE6F0E0808182608083DF91CF9193
:100800000895FC01892B09F463C0613089F028F058
:100810006230C9F0633011F108958AE290E091836B
:1008200080838BE290E09383828383E0848320C083
:100830008AE290E0918380838BE290E093838283CD
:1008400085E0848315C08AE290E0918380838BE207
:1008500090E09383828386E084830AC084E290E000
:100860009183808385E290E09383828381E0848317
:10087000A081B1814C9181E090E09C01048002C094
:10088000220F331F0A94E2F7242B2C93A281B38109
:100890002C91048002C0880F991F0A94E2F780957A
:1008A00082238C9386E990E0968385838091700201
:1008B000843070F4A0917002B0E0AA0FBB1FAF5853
:1008C000BD4FED93FC93809170028F5F8093700217
:1008D0000895FC01892BF1F0683E83E0780710F45D
:1008E00068EE73E0613D87E0780710F060ED77E037
:1008F0004FB7F8949B012B5F3F4FADECBCEC0E94CF
:10090000FA059695879596958795969587959683FA
:1009100085834FBF0895811524E0920710F08FEF73
:1009200093E09C01A8EEB3E00E94FA052FEF33E0BC
:1009300040E050E00E94D805C90188519C4F0895BD
:10094000CF93DF93EC01CB010E948B04BC01CE015D
:100950000E946904DF91CF910895853B08F084EBF4
:10096000282F30E0A8EEB3E00E94FA0524EB30E037
:1009700040E050E00E94D805C90188519C4F08957D
:10098000CF93DF93EC01862F0E94AD04BC01CE0112
:100990000E946904DF91CF910895009741F1FC0115
:1009A000858196819C01220F331F880F991F880F24
:1009B000991F880F991F280F391F283EF3E03F0722
:1009C00010F428EE33E0213D87E0380710F020EDE9
:1009D00037E0285E3340A4EBB0E00E94FA0528EE31
:1009E00033E040E050E00E94D805822F08958AE568
:1009F00008951F920F920FB60F9211242F933F93D9
:100A00004F935F936F937F938F939F93AF93BF9316
:100A1000EF93FF930E944503FF91EF91BF91AF9138
:100A20009F918F917F916F915F914F913F912F9106
:100A30000F900FBE0F901F9018958AB182608AB9EF
:100A40008AB18E7F8AB91092C50087E68093C40070
:100A50001092C00088E18093C10086E08093C200BC
:100A600008959091C00095FFFCCF8093C600089533
:100A7000CF93DF93EC0103C00E943105219688815A
:100A80008111FACFDF91CF9108958091C000882322
:100A900014F481E0089580E00895CF93DF930097E8
:100AA00051F0EC010E944505882331F08091C60089
:100AB000888381E001C080E0DF91CF91089584E5D3
:100AC00092E00E94380508951F93CF93DF9300D0E2
:100AD00000D000D0CDB7DEB7AC01892B91F580E313
:100AE0000E9431055BC09A01ADECBCEC0E94FA0596
:100AF0009695879596958795969587959C01220F53
:100B0000331F880F991F880F991F880F991F820F15
:100B1000931F9A01281B390BC901E1E0F0E0EC0FAB
:100B2000FD1FE10FF11D805D80839A010E94FA058F
:100B3000AC015695479556954795569547951F5F35
:100B400001C010E04115510571F680E018C0282F52
:100B500030E0A1E0B0E0AC0FBD1FA20FB31F9C912D
:100B6000E12FF0E03197E21BF30B21E030E02C0F96
:100B70003D1FE20FF31F20812C9390838F5F912FF5
:100B80009695891720F3E1E0F0E0EC0FFD1FE10FEF
:100B9000F11D1082CE0101960E94380526960FB6EF
:100BA000F894DEBF0FBECDBFDF91CF911F910895A6
:100BB000A1E21A2EAA1BBB1BFD010DC0AA1FBB1F61
:100BC000EE1FFF1FA217B307E407F50720F0A21BD3
:100BD000B30BE40BF50B661F771F881F991F1A9440
:100BE00069F760957095809590959B01AC01BD016A
:100BF000CF010895A29FB001B39FC001A39F700DC4
:100C0000811D1124911DB29F700D811D1124911D14
:060C10000895F894FFCFE7
:100C160001010150726F796563746F203200313AB9
:100C2600206D6F646F206D616E75616C20636F6EF1
:100C360020706F74656E63696F6D6574726F730093
:100C4600323A206775617264617220706F736963EE
:100C5600696F6E2061637475616C00333A2072654A
:100C660070726F647563697220706F736963696F00
:100C76006E206775617264616461004D6F646F20F8
:100C86006D616E75616C2061637469766F00506F7B
:100C9600736963696F6E2067756172646164612050
:100CA600656E20454550524F4D00506F736963691C
:100CB6006F6E20454550524F4D20726570726F64BD
:100CC6007563696461004E6F2068617920706F7387
:100CD6006963696F6E206775617264616461004360
:100CE6006F6D616E646F206E6F2076616C69646FE4
:100CF600004461746F20726563696269646F3A20AB
:100D060000503A004431313A20706F736963696F5D
:100D16006E20677561726461646120656E20454569
:100D260050524F4D004431323A20706F73696369F7
:100D36006F6E20454550524F4D20726570726F643C
:100D46007563696461004431323A206E6F206861D0
:100D56007920706F736963696F6E2067756172645D
:080D6600616461000D0A000048
:00000001FF
