S012000050524F594543544F20322E737265634B
S11300000C9434000C9451000C9451000C94510045
S11300100C9451000C9451000C9451000C94510018
S11300200C9451000C9451000C9451000C94510404
S11300300C9451000C9451000C94BD020C9451008A
S11300400C9451000C9451000C9451000C945100E8
S11300500C9451000C9451000C9451000C945100D8
S11300600C9451000C94510011241FBECFEFD8E022
S1130070DEBFCDBF11E0A0E0B1E0EAEEFAE002C0DD
S113008005900D92A433B107D9F721E0A4E3B1E0C0
S113009001C01D92AC36B207E1F70E945F020C94D6
S11300A073050C94000080E480937C0087E88093BF
S11300B07A0010927B0008958770ECE7F0E090815D
S11300C0907F892B8083EAE7F0E0808180648083DD
S11300D080917A0086FDFCCF809178009091790020
S11300E008958FB3877F8FBB0895F999FECF92BD92
S11300F081BD8FB381608FBB80B50895F999FECF20
S113010092BD81BD60BD8FB38F7C8FBB9FB7F894C8
S11301108FB384608FBB8FB382608FBB9FBF089502
S11301201F93CF93DF93EC01162F0E947500811764
S113013021F0612FCE010E947E00DF91CF911F91AB
S11301400895CF92DF92EF92FF920F931F93CF9374
S1130150DF936C017B01D42FC0E00CC08C2F90E0A6
S11301608701080F191F8C0D9D1D0E947500F80151
S11301708083CF5FCD1790F3DF91CF911F910F91C3
S1130180FF90EF90DF90CF900895EF92FF920F933E
S11301901F93CF93DF937C018B01D42FC0E00BC05E
S11301A08C2F90E0F801E80FF91F60818E0D9F1DE0
S11301B00E949000CF5FCD1798F3DF91CF911F91EC
S11301C00F91FF90EF90089584B1877E84B985B133
S11301D0886185B908958AB184608AB98BB18B7FAF
S11301E08BB9089523B130E0D90102C0B595A79524
S11301F08A95E2F721E0FD01E170FF27A0FF20E0EE
S113020090913C01DB018C91813061F4EF2B61F41E
S1130210FA018081F92FF81BF53040F0DA019C9344
S113022081E005C080E003C080E001C080E0FB0104
S1130230208308958BB184608BB981E08093380169
S113024080913C018093370108958BB184608BB910
S113025082E08093380180913C01809337011092B1
S11302603601089590913C0180913701292F281B74
S113027080913801823061F08330D1F0813049F5CA
S1130280223338F18BB18B7F8BB9109238010895EA
S11302902431F8F08BB18B7F8BB983E080933801E4
S11302A090933701809136018F5F809336010895D2
S11302B0243178F080913601823048F48BB1846027
S11302C08BB982E08093380190933701089510929E
S11302D038010895F8940E9453000E9471000E940E
S11302E0FF040E94E4000E94EB000E942B03EDE354
S11302F0F1E08AE591E09183808383E591E0938343
S113030082838CE491E09583848385E491E09783F0
S1130310868360E08AE591E00E94590361E083E509
S113032091E00E94590362E08CE491E00E94590339
S113033063E085E491E00E94590340E054E060E109
S113034077E280E090E00E94A70460E074E00E94FD
S11303509704EEE6F0E0808182608083789482E006
S113036091E00E940D050E9420050895CF93C0E0FE
S11303700FC08C2F0E945C00EC2FF0E0EE0FFF1FEB
S1130380E35CFE4FBC01808191810E94F803CF5F42
S1130390C43078F3CF910895CF92DF92FF920F93F8
S11303A01F93CF93DF9300D000D0CDB7DEB7833057
S11303B028F5C82ED12CCC0CDD1CCC0CDD1CF12C6A
S11303C013C00F2D10E0F801EE0FFF1FE35CFE4F8A
S11303D0808191810E942504E1E0F0E0EC0FFD1F93
S11303E0E00FF11F8083F39483E08F1550F744E00E
S11303F0BE016F5F7F4FC6010E94C5000F900F9032
S11304000F900F90DF91CF911F910F91FF90DF908C
S1130410CF9008951F93CF93DF9300D000D0CDB732
S1130420DEB7833098F590E044E0BE016F5F7F4F04
S1130430880F991F880F991F0E94A10010E024C003
S1130440812F90E0E1E0F0E0EC0FFD1FE80FF91FD1
S11304502081253B40F0E1E0F0E0EC0FFD1FE80FC8
S1130460F91F2AE52083A1E0B0E0AC0FBD1FA80F5F
S1130470B91F880F991FFC01E35CFE4F6C918081CA
S113048091810E9418041F5F1430D0F20F900F90D6
S11304900F900F90DF91CF911F9108959DEC899F4C
S11304A0912D1124969596959695990F292F220FA3
S11304B0220F920F891B805D0E94060508950E94F9
S11304C06A0180913B01811102C00E94B60145E39B
S11304D051E061E071E083E00E94F200882301F1C1
S11304E080913A010E94CC0183E191E00E940D05C4
S11304F080913A018F5F0E944E028DE191E00E944B
S11305000D050E94200580913A018F5F80933A0186
S1130510833010F010923A010E941A0110923B01AC
S113052044E351E060E071E084E00E94F20088233B
S113053009F1809139010E940A0283E191E00E944D
S11305400D05809139018F5F0E944E0287E291E090
S11305500E940D050E942005809139018F5F8093D0
S11305603901833010F0109239010E94250181E095
S113057080933B010E943201A4CF1F920F920FB6C9
S11305800F9211248F9380913C018F5F80933C01E3
S11305908F910F900FBE0F901F901895809161015D
S11305A09091620101969093620180936101809120
S11305B0610190916201803D974018F110926201AF
S11305C01092610120E019C0E22FF0E0EE0FFF1F4E
S11305D0EC59FE4F0190F081E02D309769F0A28133
S11305E0B3813C9181E090E0048002C0880F991FA0
S11305F00A94E2F7832B8C932F5F80916301281771
S113060018F380E023C0E82FF0E0EE0FFF1FEC5951
S1130610FE4F0190F081E02D3097B9F0458156816D
S113062020916101309162014217530771F4A28154
S1130630B3819C9121E030E0048002C0220F331F7B
S11306400A94E2F7209529232C938F5F90916301FC
S11306508917C8F2089580E009C0E82FF0E0EE0F92
S1130660FF1FEC59FE4F118210828F5F8430A8F374
S11306701092630110926201109261011092800045
S1130680E1E8F0E0108210928500109284008081ED
S11306908860808383E190E0909389008093880050
S11306A0808182608083EFE6F0E0808182608083D5
S11306B00895FC01892B09F463C0613089F028F0A6
S11306C06230C9F0633011F108958AE290E09183B9
S11306D080838BE290E09383828383E0848320C0D1
S11306E08AE290E0918380838BE290E0938382831B
S11306F085E0848315C08AE290E0918380838BE255
S113070090E09383828386E084830AC084E290E04D
S11307109183808385E290E09383828381E0848364
S1130720A081B1814C9181E090E09C01048002C0E1
S1130730220F331F0A94E2F7242B2C93A281B38156
S11307402C91048002C0880F991F0A94E2F78095C7
S113075082238C9386E990E096838583809163015C
S1130760843070F4A0916301B0E0AA0FBB1FAC59B0
S1130770BE4FED93FC93809163018F5F809363017F
S11307800895FC01892BF1F0643F81E0780710F4AF
S113079064EF71E0693B8BE0780710F068EB7BE075
S11307A04FB7F8949B012B5F3F4FADECBCEC0E941C
S11307B059059695879596958795969587959683E9
S11307C085834FBF0895811524E0920710F08FEFC1
S11307D093E09C01A4ECB9E00E9459052FEF33E0AB
S11307E040E050E00E943705C9018C509E4F0895A7
S11307F0CF93DF93EC01CB010E94E303BC01CE0154
S11308000E94C103DF91CF910895853B08F084EBEA
S1130810282F30E0A4ECB9E00E94590524EB30E025
S113082040E050E00E943705C9018C509E4F089566
S1130830CF93DF93EC01862F0E940504BC01CE0107
S11308400E94C103DF91CF910895009741F1FC010B
S1130850858196819C01220F331F880F991F880F71
S1130860991F880F991F280F391F243FF1E03F0774
S113087010F424EF31E0293B8BE0380710F028EB2B
S11308803BE0245F3140A4EBB0E00E94590524EC26
S113089039E040E050E00E943705822F08958AE550
S11308A008951F920F920FB60F9211242F933F9326
S11308B04F935F936F937F938F939F93AF93BF9364
S11308C0EF93FF930E94CE02FF91EF91BF91AF91FE
S11308D09F918F917F916F915F914F913F912F9154
S11308E00F900FBE0F901F9018958034910589F0DA
S11308F030F48130910559F0089799F010C08115B2
S113090021E0920741F08115944039F008C081E05C
S1130910089583E0089584E0089585E0089580E0D3
S1130920089582E0089585B3826085BB089514BC60
S113093015BC16BC87BD94B5926094BDCB010E94D2
S1130940750495B5892B85BD0E9493040895CF92B3
S1130950DF92EF92FF926B017C019A0140E050E03C
S113096060E074E284EF90E00E943705C701B601AD
S11309700E94270520E432E44FE050E00E9437054E
S1130980DA01C901232B242B252B19F00197A10986
S1130990B1098F3F9105A105B10529F020F08FEF32
S11309A090E0A0E0B0E0FF90EF90DF90CF9008954A
S11309B0DC01CB01880F991FAA1FBB1F880F991F49
S11309C0AA1FBB1F9C01AD01220F331F441F551FDB
S11309D0220F331F441F551F60E074E284EF90E040
S11309E00E943705215031093093C5002093C4007B
S11309F088E18093C10086E08093C200089560E896
S1130A0075E280E090E00E94D80408959091C000BF
S1130A1095FFFCCF8093C60008950F931F93CF9347
S1130A208C01C0E003C00E940605CF5FF801EC0F03
S1130A30F11D80818111F7CFCF911F910F910895FE
S1130A408DE00E9406058AE00E9406050895DB01F8
S1130A508F939F930E946805BF91AF91A29F800DD1
S1130A60911DA39F900DB29F900D11240895A1E2B2
S1130A701A2EAA1BBB1BFD010DC0AA1FBB1FEE1F14
S1130A80FF1FA217B307E407F50720F0A21BB30B5F
S1130A90E40BF50B661F771F881F991F1A9469F7DB
S1130AA060957095809590959B01AC01BD01CF0137
S1130AB00895A29FB001B39FC001A39F700D811D33
S1130AC01124911DB29F700D811D1124911D089553
S1130AD00E945905A59F900DB49F900DA49F800D71
S10D0AE0911D11240895F894FFCF2E
S1130AEA010153697374656D6120696E6963696193
S1130AFA646F00506F736963696F6E2000206775B5
S1130B0A6172646164610020726570726F647563F6
S1070B1A69646100A5
S9030000FC
