S012000050524F594543544F20322E737265634B
S11300000C9434000C9451000C9451000C94510045
S11300100C9451000C9451000C9451000C94510018
S11300200C9451000C9451000C9451000C941B0539
S11300300C9451000C9451000C94F3020C94510054
S11300400C9451000C9451000C9451000C945100E8
S11300500C9451000C9451000C9451000C945100D8
S11300600C9451000C94510011241FBECFEFD8E022
S1130070DEBFCDBF12E0A0E0B1E0EAE5FCE002C0E3
S113008005900D92AC38B107D9F722E0ACE8B2E0A4
S113009001C01D92A93CB207E1F70E94C0020C9472
S11300A02B060C94000080E480937C0087E8809306
S11300B07A0010927B0008958770ECE7F0E090815D
S11300C0907F892B8083EAE7F0E0808180648083DD
S11300D080917A0086FDFCCF809178009091790020
S11300E008958FB3877F8FBB0895F999FECF92BD92
S11300F081BD8FB381608FBB80B50895F999FECF20
S113010092BD81BD60BD8FB38F7C8FBB9FB7F894C8
S11301108FB384608FBB8FB382608FBB9FBF089502
S11301201F93CF93DF93EC01162F0E947500811764
S113013021F0612FCE010E947E00DF91CF911F91AB
S113014008958AB182608AB98AB18E7F8AB98AB1E8
S113015084608AB98BB18B7F8BB984B1877E84B973
S113016085B1886185B9089514BC15BC16BC84B5E5
S1130170826084BD89EF87BDEEE6F0E08081826015
S1130180808385B5836085BD08950E94A1000E9487
S113019053000E9471000E943F050E94B4000E9417
S11301A0ED0360E082EC92E00E94230461E08DEABA
S11301B092E00E94230462E084EB92E00E94230414
S11301C063E08BEB92E00E94230408950E94810572
S11301D083E091E00E945A050E9481058EE091E03F
S11301E00E945A050E94810580E391E00E945A050D
S11301F00E9481058BE491E00E945A050E948105CA
S11302008BE691E00E945A050E9481050E948105B7
S1130210089565EA80E090E00E9490008BEB92E004
S11302200E94EF04682F81E090E00E94900084EB2C
S113023092E00E94EF04682F82E090E00E94900018
S11302408DEA92E00E94EF04682F83E090E00E9420
S1130250900082EC92E00E94EF04682F84E090E02A
S11302600E9490008BB184608BB9089580E090E087
S11302700E947500853A59F51092020181E090E0E0
S11302800E947500682F8BEB92E00E94E20482E0EA
S113029090E00E947500682F84EB92E00E94E204D3
S11302A083E090E00E947500682F8DEA92E00E943E
S11302B0E20484E090E00E947500682F82EC92E0F2
S11302C00E94E2048BB18B7F8BB981E0089580E0BA
S11302D0089581E0809302018BB184608BB9089505
S11302E0813349F40E94690186E891E00E945A052D
S11302F00E9481050895823349F40E94090189E925
S113030091E00E945A050E9481050895833391F477
S11303100E943601882339F085EB91E00E945A054A
S11303200E948105089581ED91E00E945A050E9482
S1130330810508958F3411F08F3651F48BB18460A8
S11303408BB98AEE91E00E945A050E9481050895B6
S1130350863411F0863651F48BB18B7F8BB988EFDC
S113036091E00E945A050E948105089584E092E07C
S11303700E945A050E9481050E94E6000895CF93C9
S1130380DF931F92CDB7DEB71982CE0101960E948A
S11303906F05882389F089818D3071F08A3061F08E
S11303A086E192E00E945A0589810E9453050E94C9
S11303B0810589810E9470010F90DF91CF9108958A
S11303C080E00E945C00909393028093920281E00B
S11303D00E945C00909391028093900282E00E94BC
S11303E05C0090938F0280938E0283E00E945C00F5
S11303F090938D0280938C02089560919202709183
S113040093028BEB92E00E94C2046091900270917F
S1130410910284EB92E00E94C20460918E0270917A
S11304208F028DEA92E00E94C20460918C02709166
S11304308D0282EC92E00E94C204089586E292E06A
S11304400E945A0580919202909193020E9486051F
S11304508CE20E94530580919002909191020E9437
S113046086058CE20E94530580918E0290918F0242
S11304700E9486058CE20E94530580918C02909123
S11304808D020E9486050E94810508952FB7F89475
S113049060919C0270919D0280919E0290919F02B6
S11304A02FBF0895CF92DF92EF92FF921F93CF93C5
S11304B0DF930E9446026B017C0180919802909127
S11304C09902A0919A02B0919B02A7019601281B60
S11304D0390B4A0B5B0B223331054105510508F4F6
S11304E047C093B181E0292F287093FF80E0D82F73
S11304F093B181E0192F107194FF80E0C82F80918F
S11305000101813091F4211110C0C0929802D0925F
S11305109902E0929A02F0929B020E94090189E2F8
S113052092E00E945A050E94810580910001813069
S1130530D9F4111119C0C0929802D0929902E09294
S11305409A02F0929B020E943601882339F08AE4D1
S113055092E00E945A050E94810506C08BE692E053
S11305600E945A050E948105D0930101C0930001A5
S1130570DF91CF911F91FF90EF90DF90CF9008957E
S1130580F8940E94C50078940E94E6000E94E0015D
S11305908091020181110E94FD010E9452020E9479
S11305A0BF010E944602009194021091950220918D
S11305B09602309197026B017C01C01AD10AE20ABB
S11305C0F30A40EDC41647E0D406E104F104F0F266
S11305D0609394027093950280939602909397028D
S11305E00E941E02D3CF1F920F920FB60F921124B6
S11305F08F939F93AF93BF9380919C0290919D02A0
S1130600A0919E02B0919F020196A11DB11D8093FD
S11306109C0290939D02A0939E02B0939F02BF916F
S1130620AF919F918F910F900FBE0F901F901895CF
S1130630009711F481E090E0A0E0B0E0880F991FEA
S1130640AA1FBB1F880F991FAA1FBB1FAC01BD01A6
S1130650440F551F661F771F440F551F661F771FD2
S1130660840F951FA61FB71F009721E0A207B105AD
S113067020F08FEF9FEFA0E0B0E001979093890006
S11306808093880010928500109284000895AC0134
S113069060ED77E090E015C0E92FF0E0EE0FFF1F6A
S11306A0EB55FD4F0190F081E02D309749F0258105
S11306B036814217530720F42617370708F4B90187
S11306C09F5F2091A402921738F3CB010895809183
S11306D0A0029091A1029093A3028093A202809120
S11306E0A2029091A302803D974008F448C0109262
S11306F0A3021092A20220E019C0E22FF0E0EE0F54
S1130700FF1FEB55FD4F0190F081E02D309769F00C
S1130710A281B3813C9181E090E0048002C0880F03
S1130720991F0A94E2F7832B8C932F5F8091A40284
S1130730281718F329C0E82FF0E0EE0FFF1FEB5540
S1130740FD4F0190F081E02D3097B9F0458156813D
S11307502091A2023091A3022417350770F0A281E0
S1130760B3819C9121E030E0048002C0220F331F4A
S11307700A94E2F7209529232C938F5F01C080E02F
S11307809091A4028917B8F28091A2029091A302D9
S11307900E944703813D27E0920710F080ED97E027
S11307A09093A1028093A0028091A0029091A10253
S11307B02091A2023091A302821B930B59F48091E1
S11307C0A2029091A30201969093A1028093A002A9
S11307D081E090E00E9418030895CF93DF9380E0B6
S11307E009C0E82FF0E0EE0FFF1FEB55FD4F11821B
S11307F010828F5F8430A8F31092A4021092A30297
S11308001092A20280ED97E09093A1028093A0023F
S113081010928000C1E8D0E01882109285001092F6
S1130820840088818860888380ED97E00E941803A3
S1130830888182608883EFE6F0E080818260808333
S1130840DF91CF910895FC01892B09F463C06130D5
S113085089F028F06230C9F0633011F108958AE21A
S113086090E0918380838BE290E09383828383E0A2
S1130870848320C08AE290E0918380838BE290E0BD
S11308809383828385E0848315C08AE290E0918318
S113089080838BE290E09383828386E084830AC022
S11308A084E290E09183808385E290E09383828365
S11308B081E08483A081B1814C9181E090E09C012E
S11308C0048002C0220F331F0A94E2F7242B2C93D6
S11308D0A281B3812C91048002C0880F991F0A94CD
S11308E0E2F7809582238C9386E990E09683858352
S11308F08091A402843070F4A091A402B0E0AA0F05
S1130900BB1FAB55BD4FED93FC938091A4028F5F49
S11309108093A4020895FC01892BF1F0643F81E0E7
S1130920780710F464EF71E0613D87E0780710F018
S113093060ED77E04FB7F8949B012B5F3F4FADEC30
S1130940BCEC0E941C06969587959695879596957E
S11309508795968385834FBF0895811524E0920778
S113096010F08FEF93E09C01ACEDB5E00E941C0603
S11309702FEF33E040E050E00E94FA05C9018C50AB
S11309809E4F0895CF93DF93EC01CB010E94AD04F9
S1130990BC01CE010E948B04DF91CF910895853B69
S11309A008F084EB282F30E0ACEDB5E00E941C0683
S11309B024EB30E040E050E00E94FA05C9018C507D
S11309C09E4F0895CF93DF93EC01862F0E94CF04AE
S11309D0BC01CE010E948B04DF91CF910895009752
S11309E041F1FC01858196819C01220F331F880F00
S11309F0991F880F991F880F991F280F391F243FAB
S1130A00F1E03F0710F424EF31E0213D87E038079F
S1130A1010F020ED37E0245F3140A4EBB0E00E94F9
S1130A201C062CED35E040E050E00E94FA05822FD0
S1130A3008958AE508951F920F920FB60F9211241C
S1130A402F933F934F935F936F937F938F939F93D2
S1130A50AF93BF93EF93FF930E946703FF91EF91CE
S1130A60BF91AF919F918F917F916F915F914F91C2
S1130A703F912F910F900FBE0F901F9018958AB140
S1130A8082608AB98AB18E7F8AB91092C50087E6DE
S1130A908093C4001092C00088E18093C10086E076
S1130AA08093C20008959091C00095FFFCCF80937D
S1130AB0C6000895CF93DF93EC0103C00E94530551
S1130AC0219688818111FACFDF91CF910895809189
S1130AD0C000882314F481E0089580E00895CF9342
S1130AE0DF93009751F0EC010E946705882331F0F1
S1130AF08091C600888381E001C080E0DF91CF91BE
S1130B00089589E892E00E945A0508951F93CF93AF
S1130B10DF9300D000D000D0CDB7DEB7AC01892B75
S1130B2091F580E30E9453055BC09A01ADECBCECE7
S1130B300E941C0696958795969587959695879518
S1130B409C01220F331F880F991F880F991F880F4C
S1130B50991F820F931F9A01281B390BC901E1E0E9
S1130B60F0E0EC0FFD1FE10FF11D805D80839A0121
S1130B700E941C06AC015695479556954795569587
S1130B8047951F5F01C010E04115510571F680E0E3
S1130B9018C0282F30E0A1E0B0E0AC0FBD1FA20FB9
S1130BA0B31F9C91E12FF0E03197E21BF30B21E09E
S1130BB030E02C0F3D1FE20FF31F20812C93908314
S1130BC08F5F912F9695891720F3E1E0F0E0EC0F09
S1130BD0FD1FE10FF11D1082CE0101960E945A05FE
S1130BE026960FB6F894DEBF0FBECDBFDF91CF912E
S1130BF01F910895A1E21A2EAA1BBB1BFD010DC073
S1130C00AA1FBB1FEE1FFF1FA217B307E407F507B8
S1130C1020F0A21BB30BE40BF50B661F771F881F94
S1130C20991F1A9469F760957095809590959B012A
S1130C30AC01BD01CF010895A29FB001B39FC001D3
S1130C40A39F700D811D1124911DB29F700D811DF4
S10D0C501124911D0895F894FFCFBC
S1130C5A01010150726F796563746F203200313A71
S1130C6A206D6F646F206D616E75616C20636F6EA9
S1130C7A20706F74656E63696F6D6574726F73004B
S1130C8A323A206775617264617220706F736963A6
S1130C9A696F6E2061637475616C00333A20726502
S1130CAA70726F647563697220706F736963696FB8
S1130CBA6E206775617264616461004F2F463A2041
S1130CCA656E63656E646572206F20617061676129
S1130CDA72204C4544004D6F646F206D616E7561DE
S1130CEA6C2061637469766F00506F736963696F0E
S1130CFA6E20677561726461646120656E20454582
S1130D0A50524F4D00506F736963696F6E204545A9
S1130D1A50524F4D20726570726F647563696461D5
S1130D2A004E6F2068617920706F736963696F6E12
S1130D3A206775617264616461004C454420656E84
S1130D4A63656E6469646F004C4544206170616731
S1130D5A61646F00436F6D616E646F206E6F2076FD
S1130D6A616C69646F004461746F207265636962BF
S1130D7A69646F3A2000503A004431313A20706F66
S1130D8A736963696F6E2067756172646164612057
S1130D9A656E20454550524F4D004431323A207019
S1130DAA6F736963696F6E20454550524F4D2072C7
S1130DBA6570726F647563696461004431323A2004
S1130DCA6E6F2068617920706F736963696F6E2032
S10F0DDA6775617264616461000D0A00B9
S9030000FC
