S012000050524F594543544F20322E737265634B
S11300000C9434000C9451000C9451000C94510045
S11300100C9451000C9451000C9451000C94510018
S11300200C9451000C9451000C9451000C94370220
S11300300C9451000C9451000C94FB020C9451004C
S11300400C9451000C9451000C9451000C945100E8
S11300500C9451000C9451000C9451000C945100D8
S11300600C9451000C94510011241FBECFEFD8E022
S1130070DEBFCDBF11E0A0E0B1E0E4E8F9E002C0EA
S113008005900D92A630B107D9F721E0A6E0B1E0C2
S113009001C01D92A231B207E1F70E94D9010C946C
S11300A0C0040C94000080E480937C0087E8809373
S11300B07A0010927B0008958770ECE7F0E090815D
S11300C0907F892B8083EAE7F0E0808180648083DD
S11300D080917A0086FDFCCF809178009091790020
S11300E008958FB3877F8FBB0895F999FECF92BD92
S11300F081BD8FB381608FBB80B50895F999FECF20
S113010092BD81BD60BD8FB38F7C8FBB9FB7F894C8
S11301108FB384608FBB8FB382608FBB9FBF089502
S11301201F93CF93DF93EC01162F0E947500811764
S113013021F0612FCE010E947E00DF91CF911F91AB
S11301400895CF92DF92EF92FF920F931F93CF9374
S1130150DF936C017B01D42FC0E00CC08C2F90E0A6
S11301608701080F191F8C0D9D1D0E947500F80151
S11301708083CF5FCD1790F3DF91CF911F910F91C3
S1130180FF90EF90DF90CF900895EF92FF920F933E
S11301901F93CF93DF937C018B01D42FC0E00BC05E
S11301A08C2F90E0F801E80FF91F60818E0D9F1DE0
S11301B00E949000CF5FCD1798F3DF91CF911F91EC
S11301C00F91FF90EF90089584B18C7F84B985B12D
S11301D0836085B9089584B1806284B985B18F7DC7
S11301E085B90895811524E0920710F08FEF93E00C
S11301F09C01A4EBB0E00E94A6042FEF33E040E0A2
S113020050E00E948404822F0895CF93C0E00AC076
S11302108C2F0E945C000E94F200682F8C2F0E9499
S11302200C03CF5FC430A0F3CF910895CF92DF9237
S1130230EF92FF921F93CF93DF9300D000D0CDB7FE
S1130240DEB78330F0F4C82ED12CCC0CDD1CCC0CE2
S1130250DD1C10E00DC0E12EF12C812F0E9417034C
S1130260E1E0F0E0EC0FFD1FEE0DFF1D80831F5F4A
S1130270143088F344E0BE016F5F7F4FC6010E94D3
S1130280C5000F900F900F900F90DF91CF911F91A9
S1130290FF90EF90DF90CF9008951F93CF93DF935B
S11302A000D000D0CDB7DEB7833068F590E044E0ED
S11302B0BE016F5F7F4F880F991F880F991F0E949F
S11302C0A10010E01EC0812F90E0E1E0F0E0EC0F0F
S11302D0FD1FE80FF91F2081253B40F0E1E0F0E02D
S11302E0EC0FFD1FE80FF91F2AE52083E1E0F0E0A1
S11302F0EC0FFD1FE80FF91F6081812F0E940C0392
S11303001F5F143000F30F900F900F900F90DF9148
S1130310CF911F91089593B181E0292F217090FF0F
S113032080E0982F30910B0180910101813061F4BC
S113033021110CC080910701232F281B253040F088
S11303403093070181E005C080E003C080E001C074
S113035080E090930101089593B181E0292F2270E8
S113036091FF80E0982F30910B0180910001813042
S113037061F421110CC080910601232F281B253024
S113038040F03093060181E005C080E003C080E0C6
S113039001C080E090930001089580910A018130AA
S11303A021F485B1806285B9089585B18F7D85B9C1
S11303B00895F8940E9453000E947E030E947100E5
S11303C00E94E4000E94EB0048E050E064E670E024
S11303D080E090E00E94440468E070E00E94F6032C
S11303E0EFE6F0E080818260808340E054E060E1E9
S11303F077E280E090E00E94130460E074E00E94E1
S1130400E203EEE6F0E0808182608083789480915C
S11304100A01811102C00E9405010E948B018823F8
S113042079F0809109010E941601809109018F5F82
S113043080930901833010F01092090110920A018F
S11304400E94AC01882381F0809108010E944D0133
S1130450809108018F5F80930801833010F010921F
S1130460080181E080930A010E94CD01D0CF1F9240
S11304700F920FB60F9211242F933F934F935F93D4
S11304806F937F938F939F93AF93BF93CF93DF9398
S1130490EF93FF938091100181112DC08091110180
S11304A00E944103809111010E943403BC0180E049
S11304B090E048E050E00E944404EC010E94D9031B
S11304C080910C0190910D01A0910E01B0910F014A
S11304D08C0F9D1FA11DB11D0196A11DB11D8093FF
S11304E00C0190930D01A0930E01B0930F0181E0D4
S11304F0809310016DC0809111010E945903809175
S113050011018F5F8093110180911101843008F4EF
S11305103FC01092110180910C0190910D01A091A6
S11305200E01B0910F0180349C49A105B10588F4F6
S113053040910C0150910D0160910E0170910F01D9
S113054080E49CE9A0E0B0E0841B950BA60BB70BFC
S113055004C088EC90E0A0E0B0E00097A105B105EC
S113056021F001970E94D9030AC048E050E064E6F4
S113057070E080E090E00E9444040E94D90310924D
S11305800C0110920D0110920E0110920F011EC069
S113059048E050E064E670E080E090E00E944404AB
S11305A00E94D90380910C0190910D01A0910E013C
S11305B0B0910F0188539F4FAF4FBF4F80930C01F1
S11305C090930D01A0930E01B0930F0110921001AE
S11305D0FF91EF91DF91CF91BF91AF919F918F9157
S11305E07F916F915F914F913F912F910F900FBE2B
S11305F00F901F9018951F920F920FB60F9211240F
S11306008F9380910B018F5F80930B018F910F90DB
S11306100FBE0F901F901895843040F4653B08F08E
S113062064EBE82FF0E0EE5FFE4F608308958430C2
S113063030F4E82FF0E0EE5FFE4F808108958AE504
S11306400895853B08F084EB282F30E0A8EEB3E052
S11306500E94A60424EB30E040E050E00E948404B1
S1130660C90188519C4F0895843040F4E82FF0E08C
S1130670EE5FFE4F80810E94210308958CED95E08A
S11306800895813051F028F0823059F0833069F0B8
S113069008958BB188608BB908958BB180628BB952
S11306A008958BB180648BB9089585B1826085B952
S11306B00895813051F028F0823059F0833069F088
S11306C008958BB1877F8BB908958BB18F7D8BB9DA
S11306D008958BB18F7B8BB9089585B18D7F85B9D2
S11306E008958BB1877F8BB98BB18F7D8BB98BB11B
S11306F08F7B8BB985B18D7F85B908958AB1886068
S11307008AB98AB180628AB98AB180648AB984B1AB
S1130710826084B90E9471036AE580E00E940C0340
S11307206AE581E00E940C036AE582E00E940C0302
S11307306AE583E00E940C0308958034910589F0F2
S113074030F48130910559F0089799F010C0811563
S113075021E0920741F08115944039F008C081E00E
S1130760089583E0089584E0089585E0089580E085
S1130770089582E008958034910589F030F4813041
S1130780910559F0089799F010C0811521E092075E
S113079041F08115944039F008C081E0089583E068
S11307A0089584E0089585E0089580E0089582E046
S11307B008959093890080938800089585B382609A
S11307C085BB089514BC15BC16BC87BD94B5926056
S11307D094BDCB010E949D0395B5892B85BD0E94D4
S11307E0DE03089586B3826086BB0895CF93DF93BA
S11307F010928000C1E8D0E0188210928500109217
S113080084009093890080938800988198609883ED
S1130810CB010E94BB039881892B88830E94F20339
S1130820DF91CF910895CF92DF92EF92FF926B0107
S11308307C019A0140E050E060E074E284EF90E0D3
S11308400E948404C701B6010E94740420E432E4C7
S11308504FE050E00E948404DA01C901232B242BC9
S1130860252B19F00197A109B1098F3F9105A10525
S1130870B10529F020F08FEF90E0A0E0B0E0FF9008
S1130880EF90DF90CF900895CF92DF92EF92FF9296
S11308906B017C019A0140E050E060E074E284EF77
S11308A090E00E948404C701B6010E94740420E40D
S11308B032E44FE050E00E948404DA01C901232BA2
S11308C0242B252B19F00197A109B109009721E0E8
S11308D0A207B10520F08FEF9FEFA0E0B0E0FF90FA
S11308E0EF90DF90CF900895DB018F939F930E9448
S11308F0B504BF91AF91A29F800D911DA39F900D50
S1130900B29F900D11240895A1E21A2EAA1BBB1BBD
S1130910FD010DC0AA1FBB1FEE1FFF1FA217B307C7
S1130920E407F50720F0A21BB30BE40BF50B661FDD
S1130930771F881F991F1A9469F7609570958095A1
S113094090959B01AC01BD01CF010895A29FB00118
S1130950B39FC001A39F700D811D1124911DB29FEF
S1130960700D811D1124911D08950E94A604A59F58
S1130970900DB49F900DA49F800D911D1124089596
S1070980F894FFCF15
S109098401015A5A5A5AFF
S9030000FC
