:100000000C9434000C9446000C9446000C9446006A
:100010000C9446000C9446000C9446000C94460048
:100020000C9446000C9446000C9446000C94DF019E
:100030000C9446000C9446000C9446000C94460028
:100040000C9446000C9446000C9446000C94460018
:100050000C9446000C9446000C9446000C94460008
:100060000C9446000C94460011241FBECFEFD8E03C
:10007000DEBFCDBF21E0A0E0B1E001C01D92A732FC
:10008000B207E1F70E9461000C9434020C94000066
:100090000E94E1000E940A0160E080E291E00E947B
:1000A000390161E08BE091E00E94390162E082E178
:1000B00091E00E94390163E089E191E00E943901F9
:1000C00008950E94480080E00E94F300BC0180E295
:1000D00091E00E94D20181E00E94F300BC018BE01C
:1000E00091E00E94D20182E00E94F300BC0182E113
:1000F00091E00E94D20183E00E94F300BC0189E1FB
:1001000091E00E94D201DFCF809100019091010126
:1001100001969093010180930001809100019091DC
:100120000101803D974018F11092010110920001E9
:1001300020E019C0E22FF0E0EE0FFF1FED5FFE4F51
:100140000190F081E02D309769F0A281B3813C915C
:1001500081E090E0048002C0880F991F0A94E2F7C2
:10016000832B8C932F5F80910201281718F380E076
:1001700023C0E82FF0E0EE0FFF1FED5FFE4F019070
:10018000F081E02D3097B9F0458156812091000132
:10019000309101014217530771F4A281B3819C9100
:1001A00021E030E0048002C0220F331F0A94E2F7FE
:1001B000209529232C938F5F909102018917C8F213
:1001C0000895ECE7F0E01082808180648083EAE7A4
:1001D000F0E01082808180688083808187608083E6
:1001E00010927B000895ECE7F0E09081907F90837F
:1001F00090818F70982B9083EAE7F0E08081806493
:10020000808380917A0086FDFCCF80917800909168
:100210007900089580E009C0E82FF0E0EE0FFF1F9D
:10022000ED5FFE4F118210828F5F8430A8F3109231
:100230000201109201011092000110928000E1E889
:10024000F0E0108210928500109284008081886016
:10025000808383E190E0909389008093880080817F
:1002600082608083EFE6F0E0808182608083789412
:100270000895FC01892B09F463C0613089F028F0EE
:100280006230C9F0633011F108958AE290E0918301
:1002900080838BE290E09383828383E0848320C019
:1002A0008AE290E0918380838BE290E09383828363
:1002B00085E0848315C08AE290E0918380838BE29D
:1002C00090E09383828386E084830AC084E290E096
:1002D0009183808385E290E09383828381E08483AD
:1002E000A081B1814C9181E090E09C01048002C02A
:1002F000220F331F0A94E2F7242B2C93A281B3819F
:100300002C91048002C0880F991F0A94E2F780950F
:1003100082238C9386E990E0968385838091020105
:10032000843070F4A0910201B0E0AA0FBB1FAD5F52
:10033000BE4FED93FC93809102018F5F8093020189
:100340000895FC01892BF1F0643F81E0780710F4F7
:1003500064EF71E0653C89E0780710F064EC79E0C7
:100360004FB7F8949B012B5F3F4FADECBCEC0E9464
:100370002502969587959695879596958795968368
:1003800085834FBF08959C01A0EDB7E00E94250230
:100390002FEF33E040E050E00E940302C9018C508F
:1003A0009E4F0895CF93DF93EC01CB010E94C301D0
:1003B000BC01CE010E94A101DF91CF9108951F924F
:1003C0000F920FB60F9211242F933F934F935F9389
:1003D0006F937F938F939F93AF93BF93EF93FF930D
:1003E0000E948400FF91EF91BF91AF919F918F91F7
:1003F0007F916F915F914F913F912F910F900FBE21
:100400000F901F901895A1E21A2EAA1BBB1BFD018D
:100410000DC0AA1FBB1FEE1FFF1FA217B307E407E3
:10042000F50720F0A21BB30BE40BF50B661F771F3B
:10043000881F991F1A9469F760957095809590951B
:100440009B01AC01BD01CF010895A29FB001B39FF4
:10045000C001A39F700D811D1124911DB29F700DCD
:0C046000811D1124911D0895F894FFCF18
:00000001FF
