:020000020000FC
:0200000028C016
:0200100045C0E9
:1000400041C03F065B4F666D7D077F6F777C395EF1
:10005000797111240FEF0DBF08E00EBF0FE007B953
:1000600000E308B90FE70AB900E300936C0002E06F
:100070000093680004E606BD05E005BD01E00093BD
:100080006E0050E060E030E0F0E0E2E414911BB973
:10009000789418B1107F152B18B9FBCF0F930FB7B9
:1000A0000F9306B104FD03C053955F7004C005FDB6
:1000B00002C05A955F7002E000931B000F910FBFC2
:1000C0000F9118950F931F930FB70F9304E606BD7A
:1000D0003395343649F430E063956F70F0E0E2E434
:1000E000E60FF11D14911BB90F910FBF1F910F91D6
:0200F000189561
:00000001FF
