:020000020000FC
:0200000038C006
:02002C00E9C326
:02003800CAC339
:100068003F065B4F666D7D077F6F11240FEF0DBF55
:1000780008E00EBF0FEF0AB90FE104B900E007B9B5
:100088000FE308B9289829982A982B982C985F98F4
:1000980000E00093800004EF0093890003E20093DE
:1000A800880000E000938500009384000CE0009332
:1000B800810002E000936F0002E004BD00E005BD8E
:1000C80009EF07BD00E006BD02E000936E0060E0A6
:1000D80070E080E090E041E050E0A1E0B0E030E086
:1000E80021E0C0E000E000930001009301010093CB
:1000F800020100930301009304010093050100939A
:100108000601009307010093080100930901009379
:100118000A0100930B0100930C0100930E01009358
:100128000F01009310010093110100931201009335
:100138001301789478D098D0C23008F0CED0C0306F
:1001480039F0C13051F0C23019F0C33031F00AC073
:10015800A62EB72EC82ED92E11C0AA2EBB2EC42E5D
:10016800D52E0CC000911001A02E00911101B02EC7
:1001780000910E01C02E00910F01D02EC23090F0D8
:10018800C43021F400911201002361F4203009F0F9
:1001980009C0289829982A982B980BB100780BB990
:1001A8006FD3C8CF289829982A982B98F0E0E8E6CA
:1001B800EA0DF11D14910BB10078102B1BB9289A88
:1001C8005ED32898289829982A982B98F0E0E8E692
:1001D800EB0DF11D14910BB10078102B1BB9299A66
:1001E8004ED32998289829982A982B98F0E0E8E681
:1001F800EC0DF11D14910BB10078102B1BB92A9A44
:100208003ED32A98289829982A982B98F0E0E8E66F
:10021800ED0DF11D14910BB10078102B1BB92B9A21
:100228002ED32B9887CF349919C000910501083037
:1002380020F4039500930501089500910B01013006
:1002480061F001E000930B0100911201023009F402
:100258003CD0C395C53009F4C0E0089500E0009390
:10026800050100930B010895359929C000910601F5
:10027800083020F4039500930601089500910C01BD
:100288000130E1F001E000930C01C23011F4C0E04C
:1002980015C0C33011F4C1E011C0C43079F4009125
:1002A8001201023011F411D009C0002321F000E03E
:1002B8000093120103C001E000931201089500E0C9
:1002C8000093060100930C01089500E005BD2C98E9
:1002D80000931201009313010895C23019F0C3303E
:1002E80031F00AC012D05CD0A6D0F0D0089526D044
:1002F80070D0BAD004D1089500911201002321F4DE
:1003080036D080D0CAD014D10895329911C0009146
:100318000301083020F40395009303010895009128
:100328000901013021F001E00093090131D108955C
:1003380000E000930301009309010895329911C068
:1003480000910301083020F40395009303010895F8
:1003580000910901013021F001E00093090136D133
:10036800089500E00093030100930901089532996C
:1003780011C000910301083020F403950093030194
:10038800089500910901013021F001E0009309016D
:100398006FD1089500E000930301009309010895C7
:1003A800339911C000910401083020F4039500939B
:1003B8000401089500910A01013021F001E0009341
:1003C8000A01F3D0089500E00093040100930A01A4
:1003D8000895339911C000910401083020F4039561
:1003E80000930401089500910A01013021F001E011
:1003F80000930A01FDD0089500E0009304010093E2
:100408000A010895339911C000910401083020F4BD
:10041800039500930401089500910A01013021F029
:1004280001E000930A013FD1089500E00093040120
:1004380000930A010895309911C000910101083014
:1004480020F40395009301010895009107010130FC
:1004580021F001E00093070184D0089500E00093A3
:100468000101009307010895309911C0009101011D
:10047800083020F4039500930101089500910701C5
:10048800013021F001E000930701C1D0089500E098
:1004980000930101009307010895309911C000915C
:1004A8000101083020F4039500930101089500919B
:1004B8000701013021F001E00093070115D10895EB
:1004C80000E000930101009307010895319911C0DC
:1004D80000910201083020F4039500930201089569
:1004E80000910801013021F001E00093080142D099
:1004F800089500E0009302010093080108953199DE
:1005080011C000910201083020F403950093020104
:10051800089500910801013021F001E000930801DD
:100528008DD0089500E0009302010093080108951A
:10053800319911C000910201083020F4039500930D
:100548000201089500910801013021F001E00093B3
:100558000801DED0089500E000930201009308012D
:10056800089563956A3029F460E07395763009F44C
:1005780070E00895703029F4603019F475E069E08E
:100588000895603019F469E07A9508956A95089598
:100598008395923029F4843039F480E090E008950E
:1005A8008A3011F480E093950895903029F48030D2
:1005B80019F492E083E00895803031F489E09A9547
:1005C800923019F483E008958A950895BDD0439533
:1005D8004A3011F440E05395501748F019F050E0B4
:1005E80041E00895411718F011F050E041E00895F6
:1005F800503031F4413021F4A7D0502F412F0895C5
:10060800403019F449E05A9508954A950895B03054
:1006180031F4A395AA3081F4A0E0B1E00DC0A39510
:10062800A33051F4A1E0B0E000910001039504303B
:1006380009F400E000930001A5D00895B03081F4DA
:10064800A13061F4B1E0A2E000910001003011F4A2
:1006580003E001C00A950093000108C0AA9506C0EE
:10066800A03019F4B0E0A9E001C0AA958BD0089594
:1006780000910E01039510910F01123041F40430DE
:1006880079F400E000930E0100930F0108950A30F9
:1006980039F400E000930E01139510930F010895AB
:1006A80000930E01089510910F0100910E0111237E
:1006B80049F4002339F402E000930F0103E00093AA
:1006C8000E010895002361F409E000930E011A95C4
:1006D80010930F01123039F403E000930E010895CE
:1006E8000A9500930E0108950091100103950A30B0
:1006F80061F400E0009310010091110103950630A8
:1007080009F400E000931101089500931001089581
:100718001091110100911001112349F4002339F4BB
:1007280005E00093110109E00093100108950023EA
:1007380039F409E0009310011A95109311010895F6
:100748000A95009310010895B03049F4A23051F091
:10075800A43091F0A63081F0A93071F010C0A1301A
:1007680059F00DC000910001003019F002E018E0C6
:10077800089502E019E0089503E010E0089503E009
:1007880011E00895E1DF501748F019F0502F412F7C
:100798000895411718F011F0502F412F0895D4DF14
:1007A80043954A3011F440E05395501758F021F022
:1007B80050E041E02CDF0895411720F019F050E097
:1007C80041E025DF08950F931F930FB70F93009112
:1007D80013010395023308F000E000931301093177
:1007E80010F02C9804C015B100E1102715B90F912D
:1007F8000FBF1F910F9118950F931F930FB70F936A
:10080800339501E020270BB110E801270BB90091BF
:1008180012010130C1F400910F010917A1F40091F0
:100828000E01081781F400911101071761F4009176
:100838001001061741F402E00093120100E0009352
:10084800130103E005BD3C33A9F430E063956A3039
:1008580089F460E07395763069F470E083958A30A6
:1008680011F480E09395923029F4843019F480E0F3
:1008780090E095DF0F910FBF1F910F91189502E33C
:080888000AE00A95F1F708955A
:00000001FF
