:100000000C9434000C9451000C9451000C94510049
:100010000C9451000C9451000C9451000C9451001C
:100020000C9451000C9451000C9451000C9451000C
:100030000C9451000C94FC000C9451000C94510051
:100040000C9451000C9451000C9451000C945100EC
:100050000C9451000C94D8000C9451000C94510055
:100060000C9451000C94510011241FBECFEFD8E026
:10007000DEBFCDBF11E0A0E0B1E0EAE8F2E002C0EF
:1000800005900D92A031B107D9F721E0A0E1B1E0D0
:1000900001C01D92A731B207E1F70E9478000C94CD
:1000A00043010C9400008FEF8AB91BB88FE387B926
:1000B00018B887E284B988E185B90895ACE7B0E063
:1000C0001C92EAE7F0E0108287E68C9387E8808351
:1000D000089510928000E1E8F0E010828081836052
:1000E000808386E09FEF909385008093840008953D
:1000F000F8940E9453000E945E000E946900EAE7A3
:10010000F0E0808188648083EFE6F0E080818160A8
:1001100080837894FFCF8F70E82FF0E0E050FF4F9E
:10012000208188B1807C922F9F73892B88B926FF0C
:1001300004C085B1846085B9089585B18B7F85B988
:1001400008951C9910C08091110181110EC08091F9
:1001500016018F5F80931601809116018BB981E0A3
:100160008093110102C0109211011B9910C080915F
:10017000100181110EC080911601815080931601EB
:10018000809116018BB981E080931001089510923F
:10019000100108959091150180911601891720F49E
:1001A00085B1806285B9089585B18F7D85B908953F
:1001B0001F920F920FB60F9211248F93EF93FF931C
:1001C00080917900809315018091150182958F703F
:1001D00080931401809115018F7080931301EAE7D9
:1001E000F0E0808180648083FF91EF918F910F9088
:1001F0000FBE0F901F9018951F920F920FB60F927F
:1002000011242F933F934F935F936F937F938F931B
:100210009F93AF93BF93EF93FF9386E09FEF9093ED
:1002200085008093840085B18C7F85B9809112010F
:1002300081110BC0809114010E948B0085B18160F7
:1002400085B981E08093120109C0809113010E9459
:100250008B0085B1826085B9109212010E94A100C5
:100260000E94CA00FF91EF91BF91AF919F918F9132
:100270007F916F915F914F913F912F910F900FBEA2
:0A0280000F901F901895F894FFCF1F
:10028A003F065B4F666D7D077F6F777C395E7971BC
:00000001FF
