S00F00005072656C6162342E737265638B
S11300000C9434000C943E000C943E000C943E007E
S11300100C943E000C943E000C943E000C943E0064
S11300200C943E000C943E000C943E000C943E0054
S11300300C943E000C943E000C943E000C943E0044
S11300400C943E000C943E000C943E000C943E0034
S11300500C943E000C943E000C943E000C943E0024
S11300600C943E000C943E0011241FBECFEFD8E048
S1130070DEBFCDBF0E944E000C9475000C940000AE
S11300808FEF8AB91BB887B18C7F87B988B1836039
S113009088B984B1836084B915B808950E9440007A
S11300A01BB880E030990FC02FEF39EF90E021505A
S11300B030409040E1F700C00000309904C08F5FE9
S11300C08BB9309BFECF3199EDCF2FEF39EF90E014
S11300D0215030409040E1F700C000003199E2CF58
S11100E081508BB9319BFECFDDCFF894FFCF5A
S9030000FC
